{
  "contractName": "Lotto",
  "abi": [
    {
      "inputs": [
        {
          "internalType": "uint256",
          "name": "fee",
          "type": "uint256"
        }
      ],
      "stateMutability": "nonpayable",
      "type": "constructor"
    },
    {
      "inputs": [],
      "name": "betCount",
      "outputs": [
        {
          "internalType": "uint256",
          "name": "",
          "type": "uint256"
        }
      ],
      "stateMutability": "view",
      "type": "function",
      "constant": true
    },
    {
      "inputs": [],
      "name": "betSize",
      "outputs": [
        {
          "internalType": "uint256",
          "name": "",
          "type": "uint256"
        }
      ],
      "stateMutability": "view",
      "type": "function",
      "constant": true
    },
    {
      "inputs": [],
      "name": "currentState",
      "outputs": [
        {
          "internalType": "enum Lotto.State",
          "name": "",
          "type": "uint8"
        }
      ],
      "stateMutability": "view",
      "type": "function",
      "constant": true
    },
    {
      "inputs": [],
      "name": "houseFee",
      "outputs": [
        {
          "internalType": "uint256",
          "name": "",
          "type": "uint256"
        }
      ],
      "stateMutability": "view",
      "type": "function",
      "constant": true
    },
    {
      "inputs": [],
      "name": "owner",
      "outputs": [
        {
          "internalType": "address",
          "name": "",
          "type": "address"
        }
      ],
      "stateMutability": "view",
      "type": "function",
      "constant": true
    },
    {
      "inputs": [
        {
          "internalType": "uint256",
          "name": "",
          "type": "uint256"
        }
      ],
      "name": "players",
      "outputs": [
        {
          "internalType": "address payable",
          "name": "",
          "type": "address"
        }
      ],
      "stateMutability": "view",
      "type": "function",
      "constant": true
    },
    {
      "inputs": [
        {
          "internalType": "uint256",
          "name": "count",
          "type": "uint256"
        },
        {
          "internalType": "uint256",
          "name": "size",
          "type": "uint256"
        }
      ],
      "name": "createBet",
      "outputs": [],
      "stateMutability": "nonpayable",
      "type": "function"
    },
    {
      "inputs": [],
      "name": "bet",
      "outputs": [],
      "stateMutability": "payable",
      "type": "function",
      "payable": true
    },
    {
      "inputs": [],
      "name": "cancel",
      "outputs": [],
      "stateMutability": "nonpayable",
      "type": "function"
    }
  ],
  "bytecode": "0x60806040526000600160006101000a81548160ff021916908360018111156200002d576200002c620000c4565b5b02179055503480156200003f57600080fd5b506040516200100a3803806200100a833981810160405281019062000065919062000133565b600181118015620000765750606381105b620000b8576040517f08c379a0000000000000000000000000000000000000000000000000000000008152600401620000af90620001ec565b60405180910390fd5b6004549050506200020e565b7f4e487b7100000000000000000000000000000000000000000000000000000000600052602160045260246000fd5b600080fd5b6000819050919050565b6200010d81620000f8565b81146200011957600080fd5b50565b6000815190506200012d8162000102565b92915050565b6000602082840312156200014c576200014b620000f3565b5b60006200015c848285016200011c565b91505092915050565b600082825260208201905092915050565b7f486f75736520666565206d75737420626520696e206265747765656e2031202d60008201527f2039390000000000000000000000000000000000000000000000000000000000602082015250565b6000620001d460238362000165565b9150620001e18262000176565b604082019050919050565b600060208201905081810360008301526200020781620001c5565b9050919050565b610dec806200021e6000396000f3fe6080604052600436106100865760003560e01c80638da5cb5b116100595780638da5cb5b14610116578063cf09449714610141578063ea8a1af01461016c578063f71d96cb14610183578063fff058e6146101c057610086565b80630c3f6acf1461008b5780630ed469b8146100b657806311610c25146100e15780635d1d3e26146100eb575b600080fd5b34801561009757600080fd5b506100a06101e9565b6040516100ad91906108c9565b60405180910390f35b3480156100c257600080fd5b506100cb6101fc565b6040516100d891906108fd565b60405180910390f35b6100e9610202565b005b3480156100f757600080fd5b50610100610433565b60405161010d91906108fd565b60405180910390f35b34801561012257600080fd5b5061012b610439565b6040516101389190610959565b60405180910390f35b34801561014d57600080fd5b5061015661045f565b60405161016391906108fd565b60405180910390f35b34801561017857600080fd5b50610181610465565b005b34801561018f57600080fd5b506101aa60048036038101906101a591906109a5565b610651565b6040516101b791906109f3565b60405180910390f35b3480156101cc57600080fd5b506101e760048036038101906101e29190610a0e565b610690565b005b600160009054906101000a900460ff1681565b60045481565b60018060009054906101000a900460ff16600181111561022557610224610852565b5b81600181111561023857610237610852565b5b14610278576040517f08c379a000000000000000000000000000000000000000000000000000000000815260040161026f90610aab565b60405180910390fd5b60035434146102bc576040517f08c379a00000000000000000000000000000000000000000000000000000000081526004016102b390610b17565b60405180910390fd5b6000339080600181540180825580915050600190039060005260206000200160009091909190916101000a81548173ffffffffffffffffffffffffffffffffffffffff021916908373ffffffffffffffffffffffffffffffffffffffff160217905550600254600080549050141561043057600061033b6002546107d4565b90506000818154811061035157610350610b37565b5b9060005260206000200160009054906101000a900473ffffffffffffffffffffffffffffffffffffffff1673ffffffffffffffffffffffffffffffffffffffff166108fc606460045460646103a69190610b95565b6002546003546103b69190610bc9565b6103c09190610bc9565b6103ca9190610c52565b9081150290604051600060405180830381858888f193505050501580156103f5573d6000803e3d6000fd5b506000600160006101000a81548160ff0219169083600181111561041c5761041b610852565b5b021790555060008061042e9190610814565b505b50565b60035481565b600560009054906101000a900473ffffffffffffffffffffffffffffffffffffffff1681565b60025481565b60018060009054906101000a900460ff16600181111561048857610487610852565b5b81600181111561049b5761049a610852565b5b146104db576040517f08c379a00000000000000000000000000000000000000000000000000000000081526004016104d290610aab565b60405180910390fd5b600560009054906101000a900473ffffffffffffffffffffffffffffffffffffffff1673ffffffffffffffffffffffffffffffffffffffff163373ffffffffffffffffffffffffffffffffffffffff161461056b576040517f08c379a000000000000000000000000000000000000000000000000000000000815260040161056290610ccf565b60405180910390fd5b60005b600080549050811015610615576000818154811061058f5761058e610b37565b5b9060005260206000200160009054906101000a900473ffffffffffffffffffffffffffffffffffffffff1673ffffffffffffffffffffffffffffffffffffffff166108fc6003549081150290604051600060405180830381858888f19350505050158015610601573d6000803e3d6000fd5b50808061060d90610cef565b91505061056e565b506000806106239190610814565b6000600160006101000a81548160ff0219169083600181111561064957610648610852565b5b021790555050565b6000818154811061066157600080fd5b906000526020600020016000915054906101000a900473ffffffffffffffffffffffffffffffffffffffff1681565b6000600160009054906101000a900460ff1660018111156106b4576106b3610852565b5b8160018111156106c7576106c6610852565b5b14610707576040517f08c379a00000000000000000000000000000000000000000000000000000000081526004016106fe90610aab565b60405180910390fd5b600560009054906101000a900473ffffffffffffffffffffffffffffffffffffffff1673ffffffffffffffffffffffffffffffffffffffff163373ffffffffffffffffffffffffffffffffffffffff1614610797576040517f08c379a000000000000000000000000000000000000000000000000000000000815260040161078e90610ccf565b60405180910390fd5b826002819055508160038190555060018060006101000a81548160ff021916908360018111156107ca576107c9610852565b5b0217905550505050565b60008142446040516020016107ea929190610d59565b6040516020818303038152906040528051906020012060001c61080d9190610d85565b9050919050565b50805460008255906000526020600020908101906108329190610835565b50565b5b8082111561084e576000816000905550600101610836565b5090565b7f4e487b7100000000000000000000000000000000000000000000000000000000600052602160045260246000fd5b6002811061089257610891610852565b5b50565b60008190506108a382610881565b919050565b60006108b382610895565b9050919050565b6108c3816108a8565b82525050565b60006020820190506108de60008301846108ba565b92915050565b6000819050919050565b6108f7816108e4565b82525050565b600060208201905061091260008301846108ee565b92915050565b600073ffffffffffffffffffffffffffffffffffffffff82169050919050565b600061094382610918565b9050919050565b61095381610938565b82525050565b600060208201905061096e600083018461094a565b92915050565b600080fd5b610982816108e4565b811461098d57600080fd5b50565b60008135905061099f81610979565b92915050565b6000602082840312156109bb576109ba610974565b5b60006109c984828501610990565b91505092915050565b60006109dd82610918565b9050919050565b6109ed816109d2565b82525050565b6000602082019050610a0860008301846109e4565b92915050565b60008060408385031215610a2557610a24610974565b5b6000610a3385828601610990565b9250506020610a4485828601610990565b9150509250929050565b600082825260208201905092915050565b7f4e6f7420616c6c6f776564000000000000000000000000000000000000000000600082015250565b6000610a95600b83610a4e565b9150610aa082610a5f565b602082019050919050565b60006020820190508181036000830152610ac481610a88565b9050919050565b7f6d757374206d6174636820746865206265742073697a65000000000000000000600082015250565b6000610b01601783610a4e565b9150610b0c82610acb565b602082019050919050565b60006020820190508181036000830152610b3081610af4565b9050919050565b7f4e487b7100000000000000000000000000000000000000000000000000000000600052603260045260246000fd5b7f4e487b7100000000000000000000000000000000000000000000000000000000600052601160045260246000fd5b6000610ba0826108e4565b9150610bab836108e4565b925082821015610bbe57610bbd610b66565b5b828203905092915050565b6000610bd4826108e4565b9150610bdf836108e4565b9250817fffffffffffffffffffffffffffffffffffffffffffffffffffffffffffffffff0483118215151615610c1857610c17610b66565b5b828202905092915050565b7f4e487b7100000000000000000000000000000000000000000000000000000000600052601260045260246000fd5b6000610c5d826108e4565b9150610c68836108e4565b925082610c7857610c77610c23565b5b828204905092915050565b7f6f6e6c79206f776e657220697320616c6c6f7765640000000000000000000000600082015250565b6000610cb9601583610a4e565b9150610cc482610c83565b602082019050919050565b60006020820190508181036000830152610ce881610cac565b9050919050565b6000610cfa826108e4565b91507fffffffffffffffffffffffffffffffffffffffffffffffffffffffffffffffff821415610d2d57610d2c610b66565b5b600182019050919050565b6000819050919050565b610d53610d4e826108e4565b610d38565b82525050565b6000610d658285610d42565b602082019150610d758284610d42565b6020820191508190509392505050565b6000610d90826108e4565b9150610d9b836108e4565b925082610dab57610daa610c23565b5b82820690509291505056fea26469706673582212204159021d609d91f21b4b062ed8adfd4a31a2ef1c3222ba631c6c051edd17c1af64736f6c634300080b0033",
  "immutableReferences": {},
  "source": "pragma solidity ^0.8.11;\n\n/// @title A lottery that accepts bets in ETH and run the random lotto, picks winner & transfers the winnings.\n\ncontract Lotto {\n    \n    enum State {\n        IDLE,\n        BETTING\n    }\n\n    address payable[] public players;\n    State public currentState= State.IDLE;\n    uint public betCount;\n    uint public betSize;\n    uint public houseFee;\n    address public owner;\n\n    modifier Status(State state) {\n        require(state == currentState, 'Not allowed');\n        _;\n    }\n\n    modifier onlyOwner() {\n        require(msg.sender == owner, 'only owner is allowed');\n        _;\n    }\n\n    constructor(uint fee) {\n        require(fee > 1 && fee < 99, 'House fee must be in between 1 - 99');\n        fee = houseFee;\n    }\n\n    function createBet(uint count, uint size) external Status(State.IDLE) onlyOwner {\n        betCount = count;\n        betSize = size;\n        currentState = State.BETTING;\n    }\n\n    function bet() external payable Status(State.BETTING) {\n        require(msg.value == betSize, 'must match the bet size');\n        players.push(payable(msg.sender));\n        if(players.length == betCount ) {\n            uint winner = _randomModulo(betCount);\n            players[winner].transfer((betSize * betCount) * (100 - houseFee) / 100);\n            currentState = State.IDLE;\n            delete players;\n        }\n    }\n    \n    function cancel() external Status(State.BETTING) onlyOwner() {\n        for(uint i = 0; i < players.length; i++) {\n            players[i].transfer(betSize);\n        }\n        delete players;\n        currentState = State.IDLE;\n    }\n    \n    function _randomModulo(uint modulo) view internal returns(uint) {\n        return uint(keccak256(abi.encodePacked(block.timestamp, block.difficulty))) % modulo;\n    }\n\n}",
  "sourcePath": "/Users/mani/Downloads/Moralis/Lottery/contracts/Lotto.sol",
  "compiler": {
    "name": "solc",
    "version": "0.8.11+commit.d7f03943.Emscripten.clang"
  },
  "schemaVersion": "3.4.4",
  "updatedAt": "2022-01-14T19:10:03.317Z",
  "networkType": "ethereum",
  "devdoc": {
    "kind": "dev",
    "methods": {},
    "title": "A lottery that accepts bets in ETH and run the random lotto, picks winner & transfers the winnings.",
    "version": 1
  },
  "userdoc": {
    "kind": "user",
    "methods": {},
    "version": 1
  }
}